:020000040800F2
:1000000000040020A101000875030008290300086E
:1000100071030008E1010008B906000800000000B3
:100020000000000000000000000000005D05000866
:10003000E501000800000000770300084D060008F5
:10004000B7010008B7010008B7010008B7010008B0
:10005000B7010008B7010008B7010008B7010008A0
:10006000B7010008B7010008B7010008B701000890
:10007000B7010008B7010008B7010008B701000880
:10008000B7010008B7010008B7010008B701000870
:10009000B7010008B7010008B7010008B701000860
:1000A000B7010008B7010008B7010008B701000850
:1000B000B7010008B7010008B7010008B701000840
:1000C000B7010008B7010008B7010008B701000830
:1000D000B7010008B7010008B7010008B701000820
:1000E000B7010008B7010008B7010008B701000810
:1000F000B7010008B7010008B7010008B701000800
:10010000B7010008B7010008B7010008B7010008EF
:10011000B7010008B7010008B7010008B7010008DF
:10012000B7010008B7010008B7010008B7010008CF
:10013000B7010008B7010008B7010008B7010008BF
:10014000B7010008B7010008B7010008B7010008AF
:10015000B7010008B7010008B7010008B70100089F
:10016000B7010008B7010008B7010008B70100088F
:10017000B7010008B7010008B7010008B70100087F
:10018000B7010008B7010008DFF810D000F016F83A
:1001900000480047DD060008AFF30080000400209F
:1001A00005480047FEE7FEE7FEE7FEE7FEE7FEE75D
:1001B000FEE7FEE7FEE7FEE789010008064C074D73
:1001C00006E0E06840F0010394E807009847103427
:1001D000AC42F6D3FFF7DCFF280700083807000819
:1001E00000BFFEE7704700E0401E0028FCD17047CA
:1001F000F0B50A4600210023002400BF3DE00125A0
:1002000005FA01F3156805EA03049C4234D1056838
:100210004F000326BE40B543056015794E00B5403A
:100220000668354305601579012D02D01579022D38
:1002300016D185684F000326BE40B54385605579C9
:100240004E00B540866835438560456801268E407E
:10025000B5434560456896798E40B6B235434560F2
:10026000C5684F000326BE40B543C560D5794E0032
:10027000B540C6683543C560491C1029BFD3F0BDE1
:1002800041837047018370472DE9F84304460D46CA
:1002900016461F464FF0000800F07EF8012000F0DF
:1002A000E1F800F03FF98046B8F1010F33D11B4867
:1002B000006840F08050194908601948006840F40F
:1002C000404017490860002000F0C0F84FF4A050EB
:1002D00000F0ECF84FF4805000F0F4F833462A4672
:1002E00021464FF48000009700F0FEF8012000F056
:1002F000F5F800BF392000F081F80028FAD040F26C
:10030000057008490860022000F000F900BF00F005
:1003100095F80828FBD1BDE8F8830000403802407A
:1003200000700040003C024000BFFEE71CB5012108
:10033000202000F021F8C020009001208DF804005A
:1003400000208DF805008DF8060001208DF80700CB
:1003500069460648FFF74CFF40210448FFF792FF2B
:1003600080210248FFF78EFF1CBD000000140240F0
:1003700000BFFEE77047704729B1064A1268024382
:10038000044B1A6004E0034A12688243014B1A606E
:1003900070470000303802401448006840F0010007
:1003A0001249086000201149083108600F480068B0
:1003B0000F4908400D4908600E48091D08600E48A5
:1003C0000A49843108600B481038091D0860074845
:1003D000006820F4802005490860002003490C31A2
:1003E000086002498C310860704700000038024004
:1003F000FFFFF6EA103000240030002010B501465F
:100400000022002300204A11012A02D10A4C23684D
:1004100008E0022A03D1084C7034236802E0064C3D
:100420007434236801F01F02012494401C400CB175
:10043000012000E0002010BD0038024002480068A2
:1004400000F00C0070470000083802400146002010
:10045000034A106820F0F000084310607047000065
:10046000083802400021024A117011460870704796
:100470000238024002460020044B186820F0EC606D
:1004800042EA01031843014B1860704708380240E4
:1004900002460020044B186820F0784042EA01032D
:1004A0001843014B1860704708380240014600208D
:1004B000034A106820F4E0500843106070470000C1
:1004C0000838024001460020034A106820F46040CA
:1004D00040EAC100106070470838024001490866D0
:1004E000704700000000474270B5049C41EA821545
:1004F0000126C6EB530645EA0645054345EA046571
:10050000014E356070BD00000438024001460020F5
:10051000034A106820F00300084310607047000091
:100520000838024038B5002000900024002500BFA4
:100530003120FFF763FF05460098401C00900098AB
:10054000B0F5A04F01D0002DF2D03120FFF756FFBB
:1005500008B1012400E00024204638BD70470000A7
:100560000CB50020019000903448006840F48030C1
:100570003249086000BF3148006800F40030009044
:100580000198401C0190009818B90198B0F5A04F4F
:10059000F1D12A48006800F4003010B10120009029
:1005A00001E0002000900098012846D12348403007
:1005B000006840F0805021494031086020480068C0
:1005C00040F440401E4908601C48083000681B4940
:1005D000083108600846006840F40040086008469A
:1005E000006840F4A05008601648091F0860081F02
:1005F000006840F08070091F086000BF0F48006865
:1006000000F000700028F9D040F205700E49086033
:100610000A480830006820F00300084908310860E3
:100620000846006840F00200086000BF0348083038
:10063000006800F00C000828F8D10CBD003802401A
:100640000070004019544007003C02407047000011
:1006500010B51548006840F470001349086013484D
:10066000006840F001001149086000200F4908317E
:1006700008600E4800680E4908400C4908600D48A3
:10068000091D0860081F006820F48020091F086009
:10069000002006490C310860FFF762FF4FF0006050
:1006A00001498039086010BD88ED00E00038024043
:1006B000FFFFF6FE1030002400BFFEE702E008C88E
:1006C000121F08C1002AFAD170477047002001E0CC
:1006D00001C1121F002AFBD170470000FFF726FE60
:1006E000072302224FF4A8711920FFF7CDFD002146
:1006F0004FF4C000FFF7BEFE00210846FFF7C8FE1A
:100700000DE040210648FFF7BBFD0648FFF76BFDF3
:1007100040210348FFF7B6FD0248FFF764FDF0E70C
:1007200000140240FFFF0F003807000800000020FF
:0807300000040000CC060008E3
:04000005080001A14D
:00000001FF
