:020000040800F2
:1000000000040020A10100086D0400081D04000880
:1000100069040008E90100080D070008000000005D
:100020000000000000000000000000007105000852
:10003000ED010008000000002D050008A1060008E1
:10004000BB010008BB010008BB010008BB010008A0
:10005000BB010008BB010008F1010008BB0100085A
:10006000BB010008BB010008BB010008BB01000880
:10007000BB010008BB010008BB010008BB01000870
:10008000BB010008BB010008BB010008BB01000860
:10009000BB010008BB010008BB010008BB01000850
:1000A000BB010008BB010008BB010008BB01000840
:1000B000BB010008BB010008BB010008BB01000830
:1000C000BB010008BB010008BB010008BB01000820
:1000D000BB010008BB010008BB010008BB01000810
:1000E00015020008BB010008BB010008BB010008A5
:1000F000BB010008BB010008BB010008BB010008F0
:10010000BB010008BB010008BB010008BB010008DF
:10011000BB010008BB010008BB010008BB010008CF
:10012000BB010008BB010008BB010008BB010008BF
:10013000BB010008BB010008BB010008BB010008AF
:10014000BB010008BB010008BB010008BB0100089F
:10015000BB010008BB010008BB010008BB0100088F
:10016000BB010008BB010008BB010008BB0100087F
:10017000BB010008BB010008BB010008BB0100086F
:10018000BB010008BB010008DFF810D000F01AF82E
:10019000004800472F070008AFF30080000400204C
:1001A0000648804706480047FEE7FEE7FEE7FEE711
:1001B000FEE7FEE7FEE7FEE7FEE7FEE7A50600082E
:1001C00089010008064C074D06E0E06840F0010395
:1001D00094E8070098471034AC42F6D3FFF7D8FFF5
:1001E0003C0700084C07000800BFFEE7704700000E
:1001F00010B5012000F028F840B10548006880F0F3
:10020000400003490860012000F018F810BD00000C
:100210001414024010B54FF4005000F015F848B126
:100220000548006880F48070034908604FF400506E
:1002300000F004F810BD00001414024001490860E9
:1002400070470000143C014001460020034A126838
:100250000A400AB1012000E000207047143C014030
:10026000002123498279002A3AD00A46126803689D
:100270009A430B461A600A1D126803689A430B1DC5
:100280001A60027911440A6803681A430A60184A1E
:100290000832126803689A43154B08331A601A1D16
:1002A000126803689A43124B0C331A604279102A81
:1002B0000ED11A1F126803681A430D4B08331A60D7
:1002C0001A1D126803681A43094B0C331A600DE0BB
:1002D0000749427911440A6803681A430A6005E035
:1002E000027911440A6803689A430A607047000063
:1002F000003C01401FB50121052000F019F9012043
:10030000029000208DF80C008DF80F0002A91B4808
:1003100000F038F84FF40050029002A9184800F09D
:1003200031F80121880300F013F90021084600F09C
:1003300021F90D21022000F01DF90120009000207C
:100340008DF8040008208DF8050001208DF80600C6
:100350006846FFF785FF4FF40050009000208DF8AD
:1003600004000C208DF8050001208DF80600684679
:10037000FFF776FF00F07BF81FBD00000000024091
:1003800000080240F0B50A4600210023002400BF07
:100390003DE0012505FA01F3156805EA03049C42D6
:1003A00034D105684F000326BE40B543056015797A
:1003B0004E00B5400668354305601579012D02D021
:1003C0001579022D16D185684F000326BE40B5432E
:1003D000856055794E00B54086683543856045682F
:1003E00001268E40B5434560456896798E40B6B289
:1003F00035434560C5684F000326BE40B543C56020
:10040000D5794E00B540C6683543C560491C1029F2
:10041000BFD3F0BD418370470183704700BFFEE743
:100420001CB50121202000F083F84FF4A07000904B
:1004300001208DF8040000208DF805008DF80600DD
:1004400001208DF8070069460648FFF79BFF402111
:100450000448FFF7E1FF4FF480710248FFF7DAFF2D
:100460001CBD00000014024000BFFEE7704708B545
:100470004FF4C06000F050F806208DF80000012015
:100480008DF801008DF802008DF80300684600F039
:1004900007F828208DF80000684600F001F808BD34
:1004A00070B5002100230F22C4781CB3174C2468B8
:1004B00004F4E064C4F5E064C4F30721C1F104046A
:1004C000E3B20A4144789C40E1B28478144021436D
:1004D0000C07210E0E4C05786155047804F01F05B9
:1004E0000124AC4005786D11AD0005F1E025C5F89B
:1004F000004109E0047804F01F050124AC40054DDB
:100500000678761145F8264070BD00000CED00E03D
:1005100000E400E080E100E002490143024A11608A
:10052000704700000000FA050CED00E07047000085
:1005300029B1064A12680243044B1A6004E0034AD8
:1005400012688243014B1A60704700003038024045
:1005500029B1064A12680243044B1A6004E0034AB8
:1005600012688243014B1A60704700004438024011
:100570007047000030B500228B071C0F0F2303FAD1
:1005800004F20B4B8C1053F824309343084C8D101D
:1005900044F8253023468C1053F824308C07240F60
:1005A00000FA04F42343024C8D1044F8253030BD8A
:1005B000083801400CB500200190009034480068D4
:1005C00040F480303249086000BF3148006800F4D0
:1005D000003000900198401C0190009818B90198D3
:1005E000B0F5A04FF1D12A48006800F4003010B1F6
:1005F0000120009001E0002000900098012846D1E1
:1006000023484030006840F0805021494031086064
:100610002048006840F440401E4908601C480830EB
:1006200000681B49083108600846006840F4004033
:1006300008600846006840F4A05008601648091F8A
:100640000860081F006840F08070091F086000BF44
:100650000F48006800F000700028F9D040F20570E3
:100660000E4908600A480830006820F00300084975
:10067000083108600846006840F00200086000BFCA
:1006800003480830006800F00C000828F8D10CBDC1
:10069000003802400070004019544007003C0240FE
:1006A0007047000010B51548006840F47000134909
:1006B00008601348006840F00100114908600020FC
:1006C0000F49083108600E4800680E4908400C497F
:1006D00008600D48091D0860081F006820F480208C
:1006E000091F0860002006490C310860FFF762FF0F
:1006F0004FF0006001498039086010BD88ED00E0CE
:1007000000380240FFFFF6FE1030002400BFFEE775
:1007100002E008C8121F08C1002AFAD170477047CA
:10072000002001E001C1121F002AFBD17047FFF732
:1007300077FEFFF7DFFD00BFFEE700004C07000873
:0C0740000000002000040000200700085A
:04000005080001A14D
:00000001FF
