:020000040800F2
:10000000000400209D010008550300089902000823
:1000100051030008E5010008D504000800000000B5
:10002000000000000000000000000000790300084C
:10003000E9010008000000005703000869040008F7
:10004000B7010008B7010008B7010008B7010008B0
:10005000B7010008B7010008B7010008B7010008A0
:10006000B7010008B7010008B7010008B701000890
:10007000B7010008B7010008B7010008B701000880
:10008000B7010008B7010008B7010008B701000870
:10009000B7010008B7010008B7010008B701000860
:1000A000B7010008B7010008B7010008B701000850
:1000B000B7010008B7010008B7010008B701000840
:1000C000B7010008B7010008B7010008B701000830
:1000D000B7010008B7010008B7010008B701000820
:1000E000B7010008B7010008B7010008B701000810
:1000F000B7010008B7010008B7010008B701000800
:10010000B7010008B7010008B7010008B7010008EF
:10011000B7010008B7010008B7010008B7010008DF
:10012000B7010008B7010008B7010008B7010008CF
:10013000B7010008B7010008B7010008B7010008BF
:10014000B7010008B7010008B7010008B7010008AF
:10015000B7010008B7010008B7010008B70100089F
:10016000B7010008B7010008B7010008B70100088F
:10017000B7010008B7010008B7010008B70100087F
:10018000B7010008B7010008DFF80CD000F018F83C
:1001900000480047F9040008000400200648804792
:1001A00006480047FEE7FEE7FEE7FEE7FEE7FEE75C
:1001B000FEE7FEE7FEE7FEE76D04000889010008A0
:1001C000064C074D06E0E06840F0010394E80700A4
:1001D00098471034AC42F6D3FFF7DAFF3C0500082D
:1001E0004C05000800BFFEE77047F0B50A46002145
:1001F0000023002400BF3DE0012505FA01F3156846
:1002000005EA03049C4234D105684F000326BE4032
:10021000B543056015794E00B54006683543056065
:100220001579012D02D01579022D16D185684F0060
:100230000326BE40B543856055794E00B5408668BB
:1002400035438560456801268E40B5434560456865
:1002500096798E40B6B235434560C5684F00032697
:10026000BE40B543C560D5794E00B540C66835433C
:10027000C560491C1029BFD3F0BD02460020136998
:100280000B400BB1012000E0002070470183704754
:1002900042694A404261704700BFFEE71FB5012135
:1002A000084600F059F80121042000F055F801201B
:1002B000029000208DF80C008DF80F0002A908486C
:1002C000FFF793FF4FF40050009000208DF80400DA
:1002D0008DF8070069460248FFF787FF1FBD000041
:1002E0000000024070B504460D4629462046FFF73F
:1002F000C4FF012808D100BF29462046FFF7BDFFF3
:100300000028F9D1012070BD0020FCE71CB50121B7
:10031000202000F021F8C020009001208DF804007A
:1003200000208DF805008DF8060001208DF80700EB
:1003300069460648FFF759FF40210448FFF7A6FF2A
:1003400080210248FFF7A2FF1CBD000000140240FC
:1003500000BFFEE77047704729B1064A12680243A2
:10036000044B1A6004E0034A12688243014B1A608E
:100370007047000030380240704700000CB5002084
:10038000019000903448006840F4803032490860A1
:1003900000BF3148006800F4003000900198401C14
:1003A0000190009818B90198B0F5A04FF1D12A48F2
:1003B000006800F4003010B10120009001E000203E
:1003C00000900098012846D123484030006840F052
:1003D00080502149403108602048006840F4404086
:1003E0001E4908601C48083000681B490831086035
:1003F0000846006840F4004008600846006840F481
:10040000A05008601648091F0860081F006840F0E7
:100410008070091F086000BF0F48006800F000707E
:100420000028F9D040F205700E4908600A480830EB
:10043000006820F003000849083108600846006899
:1004400040F00200086000BF03480830006800F078
:100450000C000828F8D10CBD0038024000700040A4
:1004600019544007003C02407047000010B5154881
:10047000006840F47000134908601348006840F0B9
:1004800001001149086000200F49083108600E483A
:1004900000680E4908400C4908600D48091D0860B5
:1004A000081F006820F48020091F0860002006490A
:1004B0000C310860FFF762FF4FF00060014980399E
:1004C000086010BD88ED00E000380240FFFFF6FE36
:1004D0001030002400BFFEE702E008C8121F08C168
:1004E000002AFAD170477047002001E001C1121FB5
:1004F000002AFBD170470000FFF708FFFFF7CEFE90
:1005000014E001210A48FFF7EDFE012803D1402144
:100510000848FFF7BDFE4FF400510748FFF7E2FE21
:10052000012803D180210348FFF7B2FEE9E700006C
:100530000000024000140240000802404C05000880
:0C0540000000002000040000E804000897
:040000050800019D51
:00000001FF
