:020000040800F2
:10000000000400209D010008D90200088D020008AC
:10001000D5020008E50100085904000800000000AE
:10002000000000000000000000000000FD020008C9
:10003000E901000800000000DB020008ED030008F1
:10004000B7010008B7010008B7010008B7010008B0
:10005000B7010008B7010008B7010008B7010008A0
:10006000B7010008B7010008B7010008B701000890
:10007000B7010008B7010008B7010008B701000880
:10008000B7010008B7010008B7010008B701000870
:10009000B7010008B7010008B7010008B701000860
:1000A000B7010008B7010008B7010008B701000850
:1000B000B7010008B7010008B7010008B701000840
:1000C000B7010008B7010008B7010008B701000830
:1000D000B7010008B7010008B7010008B701000820
:1000E000B7010008B7010008B7010008B701000810
:1000F000B7010008B7010008B7010008B701000800
:10010000B7010008B7010008B7010008B7010008EF
:10011000B7010008B7010008B7010008B7010008DF
:10012000B7010008B7010008B7010008B7010008CF
:10013000B7010008B7010008B7010008B7010008BF
:10014000B7010008B7010008B7010008B7010008AF
:10015000B7010008B7010008B7010008B70100089F
:10016000B7010008B7010008B7010008B70100088F
:10017000B7010008B7010008B7010008B70100087F
:10018000B7010008B7010008DFF80CD000F018F83C
:10019000004800477D04000800040020064880470E
:1001A00006480047FEE7FEE7FEE7FEE7FEE7FEE75C
:1001B000FEE7FEE7FEE7FEE7F1030008890100081D
:1001C000064C074D06E0E06840F0010394E80700A4
:1001D00098471034AC42F6D3FFF7DAFFC8040008A2
:1001E000D804000800BFFEE7704700E0401E00286A
:1001F000FCD17047F0B50A4600210023002400BF5F
:100200003DE0012505FA01F3156805EA03049C4267
:1002100034D105684F000326BE40B543056015790B
:100220004E00B5400668354305601579012D02D0B2
:100230001579022D16D185684F000326BE40B543BF
:10024000856055794E00B5408668354385604568C0
:1002500001268E40B5434560456896798E40B6B21A
:1002600035434560C5684F000326BE40B543C560B1
:10027000D5794E00B540C6683543C560491C102984
:10028000BFD3F0BD418370470183704700BFFEE7D5
:100290001CB50121202000F021F8C0200090012091
:1002A0008DF8040000208DF805008DF8060001206F
:1002B0008DF8070069460648FFF79CFF4021044877
:1002C000FFF7E2FF80210248FFF7DEFF1CBD0000C0
:1002D0000014024000BFFEE77047704729B1064A8C
:1002E00012680243044B1A6004E0034A1268824316
:1002F000014B1A6070470000303802407047000020
:100300000CB50020019000903448006840F4803023
:100310003249086000BF3148006800F400300090A6
:100320000198401C0190009818B90198B0F5A04FB1
:10033000F1D12A48006800F4003010B1012000908B
:1003400001E0002000900098012846D12348403069
:10035000006840F080502149403108602048006822
:1003600040F440401E4908601C48083000681B49A2
:10037000083108600846006840F4004008600846FC
:10038000006840F4A05008601648091F0860081F64
:10039000006840F08070091F086000BF0F480068C7
:1003A00000F000700028F9D040F205700E49086096
:1003B0000A480830006820F0030008490831086046
:1003C0000846006840F00200086000BF034808309B
:1003D000006800F00C000828F8D10CBD003802407D
:1003E0000070004019544007003C02407047000074
:1003F00010B51548006840F47000134908601348B0
:10040000006840F001001149086000200F490831E0
:1004100008600E4800680E4908400C4908600D4805
:10042000091D0860081F006820F48020091F08606B
:10043000002006490C310860FFF762FF4FF00060B2
:1004400001498039086010BD88ED00E000380240A5
:10045000FFFFF6FE1030002400BFFEE702E008C8F0
:10046000121F08C1002AFAD170477047002001E02E
:1004700001C1121F002AFBD170470000FFF708FFDF
:100480001FE040210F48FFF7FDFE6FF07F40FFF7B0
:10049000ACFE40210B48FFF7F7FE6FF07F40FFF7FF
:1004A000A4FE80210748FFF7EDFE6FF07F40FFF7C5
:1004B0009CFE80210348FFF7E7FE6FF07F40FFF7C7
:1004C00094FEDEE700140240D8040008000000207B
:0804D000000400006C040008A8
:040000050800019D51
:00000001FF
